:100000000C9434000C9451000C9451000C94510049
:100010000C943E010C948A000C9451000C945100F5
:100020000C9451000C9451000C9451000C9421013B
:100030000C9451000C9451000C94D7000C94510076
:100040000C9451000C9451000C9451000C945100EC
:100050000C9451000C9451000C9451000C945100DC
:100060000C9451000C94510011241FBECFEFD8E026
:10007000DEBFCDBF11E0A0E0B1E0E0E8F6E102C0F4
:1000800005900D92A035B107D9F711E0A0E5B1E0D8
:1000900001C01D92A037B107E1F70E9469020C94DC
:1000A0003E0B0C9400000F931F938C0165E070E0F1
:1000B0000E94DB077093550160935401000F111FDC
:1000C00020E030E060E074E284EF90E0A901980164
:1000D0000E94020827BD85E085BD1F910F910895FC
:1000E000E0EBF0E0808182608083808181608083AA
:1000F00080818860808380818F7B8083808180681D
:10010000808383E28093B300E1EBF0E0808187603D
:10011000808308951F920F920FB60F9211242F9390
:100120003F938F939F9389B18093690190E09C01E5
:1001300028703070359527953595279535952795F5
:100140002093630184709070959587959595879518
:100150008093620180916301882331F08091620174
:10016000882311F482E009C080916301882339F467
:1001700080916201882319F081E08093680181E019
:1001800090E090935101809350019F918F913F9106
:100190002F910F900FBE0F901F90189582E084BD95
:1001A000EEE6F0E08081826080832D9808951F92B2
:1001B0000F920FB60F9211242F933F938F939F931B
:1001C0002D9902C02D9A02C02D992D98809156012B
:1001D0009091570101969093570180935601209179
:1001E0005601309157018091540190915501281783
:1001F000390739F485B58A7F85BD10925701109271
:10020000560181E090E090935301809352019F91B9
:100210008F913F912F910F900FBE0F901F901895C7
:10022000E1E8F0E0808188618083EFE6F0E08081A2
:100230008260808384E294EF9093890080938800A9
:1002400008951F920F920FB60F9211248F93EF9380
:10025000FF93E1E8F0E08081887F80831092850041
:10026000109284001092590110925801FF91EF9161
:100270008F910F900FBE0F901F9018951F920F92A5
:100280000FB60F9211242F933F934F935F936F9369
:100290007F938F939F93AF93BF93EF93FF9386B119
:1002A00080936E0180916E0190E0827090709595C0
:1002B000879580936F0180916E0190E084709070BB
:1002C000959587959595879580935B0180915B01C6
:1002D000882339F480916F01882319F410925C010E
:1002E00017C080915B01882331F480916F018823CE
:1002F00011F081E00BC080915B01882331F0809187
:100300006F01882311F082E001C083E080935C01DB
:1003100080915E01813009F049C080915F0188239E
:1003200049F480915C01833039F18091680181301A
:10033000B1F52CC080915F01813049F480915C015E
:100340008823D1F080915C01823049F51FC08091F3
:100350005F01823049F480915C01813069F08091C5
:100360005C018330E1F412C080915F018330B9F405
:1003700080915C01823031F480916401909165013B
:10038000019709C080915C01882349F48091640140
:10039000909165010196909365018093640160914D
:1003A00064017091650184E690E04DC080915E012A
:1003B000823009F04AC080915F01882349F480911E
:1003C0005C01833039F1809168018130B1F52CC036
:1003D00080915F01813049F480915C018823D1F0E4
:1003E00080915C01823049F51FC080915F018230AD
:1003F00049F480915C01813069F080915C01833027
:10040000E1F412C080915F018330B9F480915C0106
:10041000823031F480916C0190916D01019709C097
:1004200080915C01882349F480916C0190916D0169
:10043000019690936D0180936C0160916C017091B5
:100440006D0180E090E00E94550A80916C019091CE
:100450006D018536910534F480916C0190916D01A8
:10046000889734F484E690E090936D0180936C015A
:10047000809164019091650188973CF080916401BE
:10048000909165018536910534F088E290E0909373
:1004900065018093640190915C0180915F019817E0
:1004A00039F080915C0180935F0181E080935A0173
:1004B000FF91EF91BF91AF919F918F917F916F913C
:1004C0005F914F913F912F910F900FBE0F901F9012
:1004D00018952F923F924F925F926F927F928F92D8
:1004E0009F92AF92BF92CF92DF92EF92FF920F93C3
:1004F0001F93DF93CF93CDB7DEB72F970FB6F89446
:10050000DEBF0FBECDBF80E090E00E944D0A90E0BC
:1005100090936D0180936C0184E690E00E944D0AF7
:1005200090E090936501809364010E9467060E94A9
:10053000480788B1866088B9789481E00E944D06AA
:1005400080E060E00E945D0680E091E00E9441064C
:1005500081E060E00E945D068EE091E00E9441062D
:1005600080E197E220E931E0F9013197F1F7019755
:10057000D9F781E00E944D0680E060E00E945D06B0
:100580008BE191E00E94410681E060E00E945D06FF
:1005900082E291E00E9441068091640190916501A0
:1005A0002DB73EB7285030400FB6F8943EBF0FBE6F
:1005B0002DBFEDB7FEB731968E010F5F1F4FADB760
:1005C000BEB712961C930E93119753E0C52ED12CF3
:1005D000D382C28248E2E42E41E0F42EF582E48226
:1005E000978386830E943F082DB73EB7285F3F4F11
:1005F0000FB6F8943EBF0FBE2DBFC8010E94410642
:1006000081E067E00E945D068CE291E00E94410675
:1006100080916C0190916D014DB75EB7485050408C
:100620000FB6F8945EBF0FBE4DBFEDB7FEB7319663
:100630008E010C5F1F4FADB7BEB712961C930E9381
:100640001197D382C282F582E482978386830E94C7
:100650003F082DB73EB7285F3F4F0FB6F8943EBF17
:100660000FBE2DBFC8010E94410687B1886387B9BC
:10067000449888B1886288B9259A8BB18C608BB90F
:100680008091680084608093680080916D008C6028
:1006900080936D00239A88B1866088B98091680044
:1006A00082608093680080916C00826080936C000F
:1006B00080916C00846080936C0086B180936E01A1
:1006C00080916E0190E082709070959587958093EF
:1006D0006F0180916E0190E0847090709595879580
:1006E0009595879580935B0180915B01882339F410
:1006F00080916F01882319F410925F0117C08091D7
:100700005B01882331F480916F01882311F081E02F
:100710000BC080915B01882331F080916F018823A9
:1007200011F482E001C083E080935F0180915F015A
:1007300080935C0110925E0180915E01809368015C
:100740000E941B078091640190916501C2973CF063
:1007500080916401909165018B35910574F082E37D
:1007600090E09093650180936401609164017091C1
:10077000650184E690E00E94550A80916C01909199
:100780006D01C2973CF080916C0190916D018B35A9
:10079000910574F080E590E090936D0180936C0179
:1007A00060916C0170916D0180E090E00E94550AAB
:1007B00082E084BD80916E00826080936E002D98EF
:1007C0008091810088618093810080916F008260B8
:1007D00080936F0084E294EF909389008093880067
:1007E0000E94700080E29EE40197F1F70AE0802EFB
:1007F000912C8C0E9D1E16E0212E312CB1E04B2E3B
:10080000512CA7E0EA2EF12CEC0EFD1EF3E0CF2ECA
:10081000D12CE8E2AE2EE1E0BE2E70E2672E7EE43F
:10082000772E80E066E00E945D0680E691E00E94FF
:10083000B8071091610100E0809160019801280FD4
:10084000311DC90163E0880F991F6A95E1F7820F96
:10085000931F68E070E00E94EF079B0170936B01AB
:1008600060936A01205C3E4FC9016AE070E00E941B
:10087000DB0770936701609366014DB75EB74A501E
:1008800050400FB6F8945EBF0FBE4DBFEDB7FEB738
:100890003196ADB7BEB712969C928E921197338265
:1008A000228244E351E05583448377836683C90100
:1008B0006AE070E00E94DB07918780870E943F0812
:1008C0008DB79EB70A960FB6F8949EBF0FBE8DBF28
:1008D000C4010E9441060E941B0780915E0188238B
:1008E000A1F180915E01813059F48091580190917D
:1008F0005901019721F580916401909165010EC025
:1009000080915E01823081F580915801909159016A
:100910000197A9F480916C0190916D01880F991F46
:10092000880F991F66EF7FEF0E94EF076D5C609361
:10093000B3008091810085608093810015C0809113
:10094000580190915901892B79F480916601909119
:100950006701880F991F880F991F66EF7FEF0E942C
:10096000EF076D5C6093B30080915001909151014D
:10097000019709F04FC080915E01882389F480912E
:100980006801813011F463E006C080916801823013
:1009900089F581E06CE00E945D068CE391E028C05F
:1009A00080915E01813079F480916801823011F587
:1009B00081E06CE00E945D068CE391E00E944106BC
:1009C00081E063E011C080915E01823099F48091F2
:1009D0006801813079F463E00E945D068CE391E068
:1009E0000E94410681E06CE00E945D068EE391E08A
:1009F0000E9441068091680180935E01109263011C
:100A000010926201109251011092500150925901BE
:100A10004092580180915A01882309F44BC01092EA
:100A20005A0180915E01813099F465E00E945D0673
:100A30008091640190916501ADB7BEB718970FB66C
:100A4000F894BEBF0FBEADBFEDB7FEB731961AC06A
:100A500080915E01823071F581E06EE00E945D065A
:100A600080916C0190916D014DB75EB74850504038
:100A70000FB6F8945EBF0FBE4DBFEDB7FEB731960F
:100A8000ADB7BEB71296FC92EE921197D382C28296
:100A9000B582A482978386830E943F082DB73EB714
:100AA000285F3F4F0FB6F8943EBF0FBE2DBFC70162
:100AB0000E94410620916601309167018091640196
:100AC000909165012817390784F0209166013091D3
:100AD000670180916C0190916D01821793072CF052
:100AE00088B1886288B9449834C0209166013091F9
:100AF00067018091640190916501281739077CF4A2
:100B0000209166013091670180916C0190916D0197
:100B10002817390724F4439888B1806319C02091BD
:100B200066013091670180916C0190916D0182178F
:100B300093077CF4209166013091670180916401F4
:100B4000909165018217930724F4459888B18861D4
:100B500088B98091520190915301892B09F052C0BC
:100B6000209166013091670180916C0190916D0137
:100B700028173907DCF08091660190916701209178
:100B80006C0130916D01821B930B0397A4F580914A
:100B900066019091670120916C0130916D01821B7B
:100BA000930B8E5F9F4F0CF04DC025C020916601C6
:100BB00030916701809164019091650182179307DC
:100BC0000CF440C08091660190916701209164010E
:100BD00030916501821B930B03976CF48091660141
:100BE000909167012091640130916501821B930B04
:100BF0008E5F9F4F3CF580914601909147010E9486
:100C0000530020C080915201909153010197D1F47B
:100C1000209166013091670180916C0190916D0186
:100C2000281739077CF42091660130916701809183
:100C30006401909165018217930724F41092530187
:100C400010925201C3010197F1F7EBCD9BB19F7058
:100C50009BB99BB1807F892B8BB9299A299A2998B6
:100C600008951F93182F289A0E942606812F829597
:100C7000807F0E94260680E49FE10197F1F71F9193
:100C80000895CF93DF93EC0102C00E943106899151
:100C90008823D9F7DF91CF9108951F93182F2898B3
:100CA0000E942606812F8295807F0E94260680E47E
:100CB0009FE10197F1F71F910895882319F4862F7A
:100CC000805802C0862F80540E944D060895209AB5
:100CD000219A2298549A559A569A579A80E69AEEF3
:100CE0000197F1F780E30E94260680E29EE40197D7
:100CF000F1F780E30E94260680EE91E00197F1F77C
:100D000080E30E94260680E20E94260680E49FE19E
:100D10000197F1F788E20E944D068FE00E944D0690
:100D20000895ECE7F0E080818F7780838081806494
:100D3000808380818062808380818F7E80838081B8
:100D4000877F808380818B7F808380818D7F80837C
:100D500080818E7F8083EAE7F0E0808184608083F9
:100D600080818260808380818160808380818068CF
:100D7000808380818F7B808380818F7D8083808151
:100D80008F7E80838081877F8083089590917C000F
:100D9000907F90937C0090917C008F70892B809342
:100DA0007C0080917A00806480937A0080917A0040
:100DB00086FDFCCF809179000895249A80E699E021
:100DC0000197F1F724988CE091E00197F1F71C9BD3
:100DD00002C080E008951C9BFECF88EC90E0019754
:100DE000F1F781E008952C98249A8AE08A95F1F72A
:100DF000249880EF90E00197F1F708952C98249AB9
:100E000080EF90E00197F1F724988AE08A95F1F756
:100E100008950F931F93082F18E000FF03C00E944E
:100E2000F30602C00E94FE06115011F00695F5CFA0
:100E30001F910F9108950E94DD06882331F08CECFC
:100E40000E94090784E40E9409070895249A8AE011
:100E50008A95F1F7249885E38A95F1F783B1E8EC58
:100E6000F0E03197F1F780710895FF920F931F938F
:100E7000FF2401E018E00E9426078111F02A11509A
:100E800011F0000FF8CF8F2D1F910F91FF90089553
:100E9000EF92FF920F931F93DF93CF93CDB7DEB7FF
:100EA00029970FB6F894DEBF0FBECDBF24982C98BB
:100EB00088EE93E020E931E0F9013197F1F70197ED
:100EC000D9F71C9B47C00E94DD06882309F442C065
:100ED0008CEC0E9409078EEB0E9409078E010F5FC0
:100EE0001F4F8AE0E82EF12CEC0EFD1E0E94350704
:100EF000F80181938F01EE15FF05C1F70E94DD0611
:100F0000882341F18CEC0E9409078EE40E940907B6
:100F10008B810E9409078C810E9409078FE70E943C
:100F2000090780E991E00197F1F70E94DD06882327
:100F300089F08CEC0E94090788E40E94090788EC7C
:100F400090E020E931E0F9013197F1F70197D9F705
:100F500081E001C080E029960FB6F894DEBF0FBE95
:100F6000CDBFCF91DF911F910F91FF90EF9008952A
:100F70001F93CF93DF93EC010E9426078823B9F0DB
:100F80000E94DD06882391F08CEC0E9409078EEB0D
:100F90000E9409070E94350788830E9435078983CC
:100FA00010E00E9435071F5F1730D9F781E0DF910D
:100FB000CF911F910895AA1BBB1B51E107C0AA1F27
:100FC000BB1FA617B70710F0A61BB70B881F991FEA
:100FD0005A95A9F780959095BC01CD01089597FB8E
:100FE000092E07260AD077FD04D0E5DF06D00020C1
:100FF0001AF4709561957F4F0895F6F79095819555
:101000009F4F089597FB092E05260ED057FD04D05B
:1010100014D00AD0001C38F4509540953095219595
:101020003F4F4F4F5F4F0895F6F79095809570951D
:1010300061957F4F8F4F9F4F0895A1E21A2EAA1BF3
:10104000BB1BFD010DC0AA1FBB1FEE1FFF1FA21778
:10105000B307E407F50720F0A21BB30BE40BF50B75
:10106000661F771F881F991F1A9469F760957095FE
:10107000809590959B01AC01BD01CF010895AEE034
:10108000B0E0E5E4F8E00C94150B0D891E898F891A
:10109000988D97FF02C080E090E801979E838D8332
:1010A0001A83098386E08C839E01255E3F4FCE0123
:1010B0000196698D7A8DA9010E9470084D815E812B
:1010C00057FD0AC02F813885421753070CF49A0147
:1010D000020F131FF80110822E96E4E00C94310BDE
:1010E000ABE0B0E0E6E7F8E00C94070B3C012B0125
:1010F0005A01FC0117821682838181FD03C06FEFC4
:101100007FEFC6C19AE0892E1E010894211C311C74
:10111000F3012381F20123FD859123FF81912F01AA
:10112000882309F4B2C1853239F423FD859123FF68
:1011300081912F01853229F490E0B3010E947D0A4C
:10114000E7CF982FFF24EE249924FFE1FF15D0F07C
:101150009B3269F09C3228F4903259F0933291F42A
:101160000EC09D3249F0903369F441E024C052E052
:10117000F52A84E0F82A28C098E0F92A25C0E0E1A1
:10118000FE2A22C0F7FC29C0892F80538A3070F4D0
:10119000F6FE05C0989C902C1124980E15C0E89C72
:1011A000E02C1124E80EF0E2FF2A0EC09E3229F452
:1011B000F6FC6BC140E4F42A07C09C3619F450E8F1
:1011C000F52A02C0983649F4F20123FD959123FFD8
:1011D00091912F01992309F0B8CF892F855483303D
:1011E00018F08052833038F444E050E0A40EB51E6D
:1011F0005FE359830FC0933631F0933779F093351D
:1012000009F056C020C0F5018081898342E050E09A
:10121000A40EB51E610101E010E012C0F501C0800E
:10122000D180F6FC03C06FEF7FEF02C0692D70E044
:1012300042E050E0A40EB51EC6010E94720A8C0165
:101240005FE7F52214C0F501C080D180F6FC03C031
:101250006FEF7FEF02C0692D70E042E050E0A40E16
:10126000B51EC6010E94670A8C0150E8F52AF3FEFC
:1012700007C01AC080E290E0B3010E947D0AEA94A0
:101280008E2D90E008171907A8F30EC0F601F7FCA1
:101290008591F7FE81916F0190E0B3010E947D0A74
:1012A000E110EA94015010400115110579F7EAC0E8
:1012B000943611F0993669F5F7FE08C0F5012081E2
:1012C00031814281538184E090E00AC0F501808140
:1012D00091819C01442737FD4095542F82E090E096
:1012E000A80EB91E9FE6F92257FF09C050954095F8
:1012F000309521953F4F4F4F5F4FE0E8FE2ACA01DE
:10130000B901A1012AE030E00E94A90AD82ED21822
:1013100040C0953729F41F2D1F7E2AE030E01DC004
:101320001F2D197F9F3661F0903720F4983509F012
:10133000ACC00FC0903739F0983709F0A6C004C090
:1013400028E030E00AC0106114FD146020E130E0B4
:1013500004C014FD166020E132E017FF08C0F5015B
:10136000608171818281938144E050E008C0F50181
:1013700080819181BC0180E090E042E050E0A40EC9
:10138000B51EA1010E94A90AD82ED2188FE7F82E07
:10139000F122F6FE0BC05EEFF522D91438F4F4FE0C
:1013A00007C0F2FC05C08FEEF82202C01D2D01C05F
:1013B000192DF4FE0DC0FE01ED0DF11D808180336D
:1013C00019F499EEF92208C01F5FF2FE05C003C0B0
:1013D0008F2D867809F01F5F0F2DF3FC14C0F0FEEF
:1013E0000FC01E1510F09D2C0BC09D2C9E0C911A49
:1013F0001E2D06C080E290E0B3010E947D0A1F5FAF
:101400001E15C0F304C01E1510F4E11A01C0EE242D
:1014100004FF0FC080E390E0B3010E947D0A02FF49
:101420001DC001FD03C088E790E00EC088E590E094
:101430000BC0802F867891F001FF02C08BE201C0C3
:1014400080E2F7FC8DE290E0B3010E947D0A06C0C5
:1014500080E390E0B3010E947D0A9A94D914C0F30E
:10146000DA94F101ED0DF11D808190E0B3010E944D
:101470007D0ADD20A9F706C080E290E0B3010E945A
:101480007D0AEA94EE20C1F743CEF30166817781AD
:10149000CB012B96E2E10C94230BF999FECF92BD80
:1014A00081BDF89A992780B50895262FF999FECF26
:1014B00092BD81BDF89A019700B4021639F01FBAA7
:1014C00020BD0FB6F894FA9AF99A0FBE0895FC0160
:1014D0000590615070400110D8F7809590958E0F5F
:1014E0009F1F0895FC016150704001900110D8F7D2
:1014F000809590958E0F9F1F08950F931F93CF9304
:10150000DF938C01EB018B8181FF1BC082FF0DC03B
:101510002E813F818C819D812817390764F4E881F1
:10152000F9810193F983E88306C0E885F985802F66
:101530000995892B31F48E819F8101969F838E833B
:1015400002C00FEF1FEFC801DF91CF911F910F91E4
:101550000895FA01AA27283051F1203181F1E89449
:101560006F936E7F6E5F7F4F8F4F9F4FAF4FB1E096
:101570003ED0B4E03CD0670F781F891F9A1FA11D91
:10158000680F791F8A1F911DA11D6A0F711D811D92
:10159000911DA11D20D009F468943F912AE0269F57
:1015A00011243019305D3193DEF6CF010895462FB6
:1015B0004770405D4193B3E00FD0C9F7F6CF462F97
:1015C0004F70405D4A3318F0495D31FD4052419300
:1015D00002D0A9F7EACFB4E0A695979587957795BD
:1015E0006795BA95C9F700976105710508959B0144
:1015F000AC010A2E06945795479537952795BA95CD
:10160000C9F7620F731F841F951FA01D08952F92A5
:101610003F924F925F926F927F928F929F92AF9282
:10162000BF92CF92DF92EF92FF920F931F93CF93CF
:10163000DF93CDB7DEB7CA1BDB0B0FB6F894DEBF66
:101640000FBECDBF09942A88398848885F846E848C
:101650007D848C849B84AA84B984C884DF80EE80D6
:10166000FD800C811B81AA81B981CE0FD11D0FB6DF
:10167000F894DEBF0FBECDBFED010895F894FFCF03
:1016800045453130392050726F6A65637400446992
:1016900065676F204D656E64657A0054656D703ABC
:1016A00020004C6F773D2000253264002048696798
:1016B000683D20002532642E253164003F003D0046
:1016C000060126014A015D018801B801EE010B0205
:00000001FF
